:100000000C945C000C941B020C94F4010C94790089
:100010000C9479000C9479000C9479000C9479007C
:100020000C9479000C9479000C9479000C9479006C
:100030000C9479000C9479000C9479000C9479005C
:100040000C94AA010C9479000C9479000C9479001A
:100050000C9479000C9479000C9479000C9479003C
:100060000C9479000C947900000000002400270013
:100070002A0000000000250028002B0004040404CE
:100080000404040402020202020203030303030342
:10009000010204081020408001020408102001021F
:1000A00004081020000000080002010000030407FB
:1000B000000000000000000011241FBECFEFD8E0B8
:1000C000DEBFCDBF11E0A0E0B1E0EAE6F5E002C09E
:1000D00005900D92A430B107D9F721E0A4E0B1E07A
:1000E00001C01D92AD30B207E1F70E9442020C94AC
:1000F000B3020C94000090E0FC01EC55FF4F2491FA
:10010000FC01E057FF4F3491FC01E458FF4FE491AC
:10011000EE23C9F0222339F0233001F1A8F4213075
:1001200019F1223029F1F0E0EE0FFF1FEE58FF4FDA
:10013000A591B4918FB7F894EC91611126C03095D8
:100140003E233C938FBF08952730A9F02830C9F093
:10015000243049F7809180008F7D03C0809180001A
:100160008F7780938000DFCF84B58F7784BDDBCF1E
:1001700084B58F7DFBCF8091B0008F778093B000E6
:10018000D2CF8091B0008F7DF9CF3E2BDACFCF93C5
:10019000DF9390E0FC01E057FF4F249184589F4F7C
:1001A000FC0184918823D1F090E0880F991FFC0115
:1001B000E859FF4FA591B491FC01EE58FF4FC5914E
:1001C000D49161110EC09FB7F8948C91E22FE09505
:1001D0008E238C932881E223E8839FBFDF91CF9108
:1001E00008958FB7F894EC91E22BEC938FBFF6CF84
:1001F0003FB7F8948091090190910A01A0910B01F9
:10020000B0910C0126B5A89B05C02F3F19F00196AF
:10021000A11DB11D3FBFBA2FA92F982F8827BC0160
:10022000CD01620F711D811D911D42E0660F771F88
:10023000881F991F4A95D1F708958F929F92AF9288
:10024000BF92CF92DF92EF92FF924B015C010E942E
:10025000F8006B017C010E94F8006C197D098E0981
:100260009F09683E734081059105A8F321E0821A39
:100270009108A108B10888EEC80E83E0D81EE11CE1
:10028000F11C81149104A104B10429F7FF90EF90AF
:10029000DF90CF90BF90AF909F908F90089508957A
:1002A00061E088E00E947B0061E08AE00E947B00C0
:1002B00060E472E48FE090E00C941D0160E08AE05D
:1002C0000E947B0061E08BE00E947B0060E47DE0A7
:1002D00083E090E00E941D0160E08BE00E947B00C3
:1002E00061E08CE00E947B0060EA76E881E090E0CB
:1002F0000E941D0160E088E00E947B0061E089E0CF
:100300000E947B0060E472E48FE090E00E941D0197
:1003100060E089E00E947B0061E088E00E947B0051
:1003200060EA76E881E090E00E941D0160E08CE0E8
:100330000E947B0061E08BE00E947B0060E47DE036
:1003400083E090E00E941D0160E08BE00E947B0052
:100350000C9450011F920F920FB60F9211242F93FD
:100360003F938F939F93AF93BF938091050190919B
:100370000601A0910701B09108013091040123E02A
:10038000230F2D3758F50196A11DB11D20930401AF
:100390008093050190930601A0930701B093080193
:1003A0008091090190910A01A0910B01B0910C017B
:1003B0000196A11DB11D8093090190930A01A0939C
:1003C0000B01B0930C01BF91AF919F918F913F9121
:1003D0002F910F900FBE0F901F90189526E8230FB6
:1003E0000296A11DB11DD2CF1F920F920FB60F9290
:1003F00011242F933F934F935F936F937F938F932A
:100400009F93AF93BF93EF93FF93E0910201F0911D
:1004100003010995FF91EF91BF91AF919F918F914A
:100420007F916F915F914F913F912F910F900FBEF0
:100430000F901F9018951F920F920FB60F921124D4
:100440002F933F934F935F936F937F938F939F93DC
:10045000AF93BF93EF93FF93E0910001F0910101FF
:100460000995FF91EF91BF91AF919F918F917F91EE
:100470006F915F914F913F912F910F900FBE0F9011
:100480001F901895789484B5826084BD84B581608E
:1004900084BD85B5826085BD85B5816085BD80914F
:1004A0006E00816080936E001092810080918100C7
:1004B00082608093810080918100816080938100BF
:1004C000809180008160809380008091B100846081
:1004D0008093B1008091B00081608093B0008091E2
:1004E0007A00846080937A0080917A0082608093A1
:1004F0007A0080917A00816080937A0080917A00FE
:10050000806880937A001092C10061E08CE00E94C4
:10051000C70061E08BE00E94C70061E08AE00E94B2
:10052000C70061E088E00E94C70061E089E00E94A6
:10053000C70060E082E00E94C7008EE591E09093E2
:10054000010180930001809169008C7F826080931B
:100550006900E89A0E945001C0E0D0E02097F1F3D2
:0A0560000E940000FBCFF894FFCFCB
:04056A004F014F01ED
:00000001FF
