:100000000C9462000C948A000C948A000C948A0070
:100010000C948A000C948A000C948A000C948A0038
:100020000C948A000C948A000C948A000C948A0028
:100030000C948A000C948A000C948A000C948A0018
:100040000C946B020C948A000C9439020C941302E9
:100050000C948A000C948A000C948A000C948A00F8
:100060000C948A000C948A000000000024002700F1
:100070002A000000000023002600290000000000E4
:10008000250028002B0004040404040404040202D4
:100090000202020203030303030301020408102007
:1000A0004080010204081020010204081020000012
:1000B0000008000201000003040700000000000027
:1000C0000000490411241FBECFEFD8E0DEBFCDBF32
:1000D00011E0A0E0B1E0EEE7F9E002C005900D927A
:1000E000A032B107D9F721E0A0E2B1E001C01D9232
:1000F000A63CB207E1F710E0C2E6D0E004C02197C9
:10010000FE010E94B704C136D107C9F70E94FA0266
:100110000C94BD040C940000EBEBF0E02491E7EAB2
:10012000F0E09491E3E9F0E0E491EE23C9F02223BA
:1001300039F0233001F1A8F4213019F1223029F1EE
:10014000F0E0EE0FFF1FE458FF4FA591B4912FB7D9
:10015000F894EC91811126C090959E239C932FBF1B
:1001600008952730A9F02830C9F0243049F72091AC
:1001700080002F7D03C0209180002F772093800086
:10018000DFCF24B52F7724BDDBCF24B52F7DFBCF68
:100190002091B0002F772093B000D2CF2091B000F3
:1001A0002F7DF9CF9E2BDACFAF92BF92CF92DF9205
:1001B000EF92FF920F931F93CF93DF936C017B011C
:1001C0008B01040F151FEB015E01AE18BF08C017AD
:1001D000D10759F06991D601ED91FC910190F08120
:1001E000E02DC6010995892B79F7C501DF91CF91E3
:1001F0001F910F91FF90EF90DF90CF90BF90AF9045
:100200000895FC01538D448D252F30E0842F90E01C
:10021000821B930B541710F0CF9608950197089501
:10022000FC01918D828D981761F0A28DAE0FBF2FCA
:10023000B11D5D968C91928D9F5F9F73928F90E020
:1002400008958FEF9FEF0895FC01918D828D98178F
:1002500031F0828DE80FF11D858D90E008958FEFCC
:100260009FEF0895FC01918D228D892F90E0805C95
:100270009F4F821B91098F739927089589E291E01E
:100280000E94320121E0892B09F420E0822F089599
:1002900080E090E0892B29F00E943E0181110C94AE
:1002A00000000895FC01A48DA80FB92FB11DA35A19
:1002B000BF4F2C91848D90E001968F739927848F86
:1002C000A689B7892C93A089B1898C9183708064A9
:1002D0008C93938D848D981306C00288F389E02D4A
:1002E00080818F7D80830895EF92FF920F931F93FB
:1002F000CF93DF93EC0181E0888F9B8D8C8D9813D9
:100300001AC0E889F989808185FF15C09FB7F894E4
:10031000EE89FF896083E889F98980818370806430
:1003200080839FBF81E090E0DF91CF911F910F917B
:10033000FF90EF900895F62E0B8D10E00F5F1F4F8A
:100340000F731127E02E8C8D8E110CC00FB607FC99
:10035000FACFE889F989808185FFF5CFCE010E9427
:100360005201F1CFEB8DEC0FFD2FF11DE35AFF4F42
:10037000F0829FB7F8940B8FEA89FB8980818062B5
:10038000CFCFCF93DF93EC01888D8823B9F0AA8972
:10039000BB89E889F9898C9185FD03C0808186FD40
:1003A0000DC00FB607FCF7CF8C9185FFF2CF80818F
:1003B00085FFEDCFCE010E945201E9CFDF91CF91B1
:1003C00008953FB7F8948091250190912601A0915E
:1003D0002701B091280126B5A89B05C02F3F19F031
:1003E0000196A11DB11D3FBFBA2FA92F982F8827B5
:1003F000BC01CD01620F711D811D911D42E0660F90
:10040000771F881F991F4A95D1F70895FC01019025
:100410000020E9F73197AF01481B590BBC0189E275
:1004200091E00C94D4001F920F920FB60F921124FA
:100430002F933F934F935F936F937F938F939F93EC
:10044000AF93BF93EF93FF9389E291E00E94520133
:10045000FF91EF91BF91AF919F918F917F916F919C
:100460005F914F913F912F910F900FBE0F901F9072
:1004700018951F920F920FB60F9211242F938F93FE
:100480009F93EF93FF93E0913901F0913A018081BE
:10049000E0913F01F091400182FD1BC0908180916D
:1004A00042018F5F8F7320914301821741F0E091E9
:1004B0004201F0E0E75DFE4F958F80934201FF918E
:1004C000EF919F918F912F910F900FBE0F901F90E2
:1004D00018958081F4CF1F920F920FB60F921124BE
:1004E0002F933F938F939F93AF93BF93809121015D
:1004F00090912201A0912301B0912401309120011B
:1005000023E0230F2D3758F50196A11DB11D20932F
:1005100020018093210190932201A0932301B093A5
:1005200024018091250190912601A0912701B0918D
:1005300028010196A11DB11D8093250190932601EC
:10054000A0932701B0932801BF91AF919F918F9104
:100550003F912F910F900FBE0F901F90189526E896
:10056000230F0296A11DB11DD2CFCF92DF92EF9241
:10057000FF920F931F93E82FF92F05C00150110927
:100580002109310961F1908196239417B9F305C0CF
:10059000015011092109310911F190819623941319
:1005A000F7CFC12CD12CE12CF12C0AC08FEFC81A47
:1005B000D80AE80AF80A0C151D052E053F0579F042
:1005C00080818623841791F36C2D7D2D8E2D9F2D98
:1005D0001F910F91FF90EF90DF90CF90089560E012
:1005E00070E080E090E01F910F91FF90EF90DF901E
:1005F000CF900895CF93DF93CDB7DEB7A1970FB615
:10060000F894DEBF0FBECDBF789484B5826084BD00
:1006100084B5816084BD85B5826085BD85B5816006
:1006200085BD80916E00816080936E001092810084
:10063000809181008260809381008091810081603F
:100640008093810080918000816080938000809100
:10065000B10084608093B1008091B000816080938C
:10066000B00080917A00846080937A0080917A0053
:10067000826080937A0080917A00816080937A0012
:1006800080917A00806880937A001092C100E09196
:100690003901F0913A0182E08083E0913501F091D7
:1006A00036011082E0913701F09138018FEC8083A0
:1006B00010924101E0913D01F0913E0186E080837E
:1006C000E0913B01F0913C01808180618083E09169
:1006D0003B01F0913C01808188608083E0913B0187
:1006E000F0913C01808180688083E0913B01F09132
:1006F0003C0180818F7D8083E6EAF0E02491E2E98D
:10070000F0E084918823C9F090E0880F991FFC01E4
:10071000E859FF4FA591B491FC01E458FF4F459172
:1007200054913FB7F8949C91822F809598239C9385
:10073000FA019081892380833FBFE7EAF0E02491AA
:10074000E3E9F0E08491882399F090E0880F991F05
:10075000FC01E859FF4FA591B491FC01E458FF4F0B
:10076000859194918FB7F894EC91E22BEC938FBF25
:100770002AE0422E512C612C712C30E0232E30E0E7
:10078000332E82E191E00E94060280E00E948C00FC
:1007900083E090E00197F1F781E00E948C0083E212
:1007A00090E00197F1F780E00E948C00E6EAF0E02B
:1007B0006491E2E9F0E08491E82FF0E0EE0FFF1F92
:1007C000EE58FF4F8591949100E412E42FE030E061
:1007D000462F0E94B502611571058105910529F02A
:1007E0006F5F7F4F8F4F9F4F9F702AE330E040E055
:1007F00050E00E94980419A27E01F1E2EF0EF11C74
:10080000CA01B901A30192010E947604605DF7015B
:1008100062937F01211531054105510589F7309714
:1008200019F0CF010E9406028DE191E00E940602BC
:100830000E94E1016B017C0184EF882E992493943E
:10084000A12CB12C0E94E1016C197D098E099F0930
:10085000683E734081059105A8F3F1E08F1A910875
:10086000A108B10828EEC20E23E0D21EE11CF11C43
:1008700081149104A104B10429F72114310409F46D
:1008800080CF0E943E01882309F47BCF0E940000A4
:1008900078CFE9E2F1E01382128288EE93E0A0E0E3
:1008A000B0E084839583A683B78384E091E091834D
:1008B000808385EC90E09587848784EC90E097872F
:1008C000868780EC90E0918B808B81EC90E0938B1D
:1008D000828B82EC90E0958B848B86EC90E0978BFA
:1008E000868B118E128E138E148E0895A1E21A2E0D
:1008F000AA1BBB1BFD010DC0AA1FBB1FEE1FFF1FC4
:10090000A217B307E407F50720F0A21BB30BE40B13
:10091000F50B661F771F881F991F1A9469F760955A
:100920007095809590959B01AC01BD01CF01089514
:10093000052E97FB1EF400940E94AF0457FD07D0CC
:100940000E94760407FC03D04EF40C94AF0450953B
:100950004095309521953F4F4F4F5F4F08959095AB
:100960008095709561957F4F8F4F9F4F0895EE0F43
:0E097000FF1F0590F491E02D0994F894FFCF3D
:10097E00000000007401D4000101C1013201100118
:10098E00240144697374616E63653A20000D0A0098
:00000001FF
