:100000000C945D000C9485000C9485000C94850084
:100010000C9485000C9485000C9485000C9485004C
:100020000C9485000C9485000C9485000C9485003C
:100030000C9485000C9485000C9485000C9485002C
:100040000C9486030C9485000C9454030C942E039A
:100050000C9485000C9485000C9485000C9485000C
:100060000C9485000C9485000000000024002700FB
:100070002A0000000000250028002B0004040404CE
:100080000404040402020202020203030303030342
:10009000010204081020408001020408102001021F
:1000A00004081020000000080002010000030407FB
:1000B0000000000000000000060511241FBECFEF65
:1000C000D8E0DEBFCDBF11E0A0E0B1E0E2E3FFE0A9
:1000D00002C005900D92AE32B107D9F721E0AEE231
:1000E000B1E001C01D92AC3DB207E1F710E0CDE5F3
:1000F000D0E004C02197FE010E949107CC35D107C2
:10010000C9F70E94D0030C9497070C940000E1EB10
:10011000F0E02491EDE9F0E09491E9E8F0E0E49179
:10012000EE23C9F0222339F0233001F1A8F4213065
:1001300019F1223029F1F0E0EE0FFF1FEE58FF4FCA
:10014000A591B4912FB7F894EC91811126C09095A8
:100150009E239C932FBF08952730A9F02830C9F023
:10016000243049F7209180002F7D03C0209180002A
:100170002F7720938000DFCF24B52F7724BDDBCFEE
:1001800024B52F7DFBCF2091B0002F772093B000B6
:10019000D2CF2091B0002F7DF9CF9E2BDACFAF9236
:1001A000BF92CF92DF92EF92FF920F931F93CF9364
:1001B000DF936C017B018B01040F151FEB015E01C6
:1001C000AE18BF08C017D10759F06991D601ED915B
:1001D000FC910190F081E02DC6010995892B79F7FA
:1001E000C501DF91CF911F910F91FF90EF90DF90AC
:1001F000CF90BF90AF900895FC01538D448D252F73
:1002000030E0842F90E0821B930B541710F0CF96B0
:10021000089501970895FC01918D828D981761F0E2
:10022000A28DAE0FBF2FB11D5D968C91928D9F5FF9
:100230009F73928F90E008958FEF9FEF0895FC01D8
:10024000918D828D981731F0828DE80FF11D858D8B
:1002500090E008958FEF9FEF0895FC01918D228D1E
:10026000892F90E0805C9F4F821B91098F739927A3
:1002700008958FE391E00E942D0121E0892B09F47C
:1002800020E0822F089580E090E0892B29F00E94E1
:10029000390181110C9400000895FC01A48DA80F70
:1002A000B92FB11DA35ABF4F2C91848D90E00196B8
:1002B0008F739927848FA689B7892C93A089B189D8
:1002C0008C91837080648C93938D848D981306C079
:1002D0000288F389E02D80818F7D80830895EF92DD
:1002E000FF920F931F93CF93DF93EC0181E0888FF0
:1002F0009B8D8C8D98131AC0E889F989808185FFC0
:1003000015C09FB7F894EE89FF896083E889F98961
:1003100080818370806480839FBF81E090E0DF9163
:10032000CF911F910F91FF90EF900895F62E0B8DB6
:1003300010E00F5F1F4F0F731127E02E8C8D8E1171
:100340000CC00FB607FCFACFE889F989808185FFD8
:10035000F5CFCE010E944D01F1CFEB8DEC0FFD2FBB
:10036000F11DE35AFF4FF0829FB7F8940B8FEA8993
:10037000FB8980818062CFCFCF93DF93EC01888DA2
:100380008823B9F0AA89BB89E889F9898C9185FD10
:1003900003C0808186FD0DC00FB607FCF7CF8C919E
:1003A00085FFF2CF808185FFEDCFCE010E944D0108
:1003B000E9CFDF91CF9108953FB7F8948091330151
:1003C00090913401A0913501B091360126B5A89BDA
:1003D00005C02F3F19F00196A11DB11D3FBFBA2FD7
:1003E000A92F982F8827BC01CD01620F711D811D97
:1003F000911D42E0660F771F881F991F4A95D1F71C
:100400000895FC0101900020E9F73197AF01481BE6
:10041000590BBC018FE391E00C94CF008F929F9217
:10042000AF92BF920F931F93CF93DF93CDB7DEB7F9
:10043000A1970FB6F894DEBF0FBECDBF19A2423010
:1004400008F44AE08E010F5D1F4F842E912CB12CD1
:10045000A12CA50194010E946F07E62FB901CA01E2
:10046000EA30F4F4E05DD801EE938D01232B242BC8
:10047000252B79F790E080E0109719F0CD010E94CC
:100480000102A1960FB6F894DEBF0FBECDBFDF917B
:10049000CF911F910F91BF90AF909F908F90089533
:1004A000E95CE1CF4F925F926F927F928F929F9221
:1004B000AF92BF92CF92DF92EF92FF920F931F9372
:1004C000CF936B017C01742EAC019B010E946A07E3
:1004D000882399F082E191E0CF911F910F91FF90D5
:1004E000EF90DF90CF90BF90AF909F908F907F90D4
:1004F0006F905F904F900C94010246015701E89471
:10050000B7F82FEF3FEF4FE75FE7C501B4010E9457
:100510006A0781110DC02FEF3FEF4FE75FE7C5017D
:10052000B4010E94A00518161CF486E191E0D4CF16
:100530002FEF3FEF4FE75FE4C701B6010E94F806D7
:1005400018161CF48AE191E0C7CF2FEF3FEF4FE779
:100550005FECC701B6010E94A00587FDF3CF20E044
:1005600030E0A901C701B6010E94A00510E000E03B
:1005700087FF0AC06DE28FE391E00E946F018C015A
:10058000F7FAF094F7F8F094C0E060E070E080E0F3
:100590009FE37C1641F020E030E040E251E40E940D
:1005A000A505CF5FF6CFA70196010E9434052B0168
:1005B0003C010E9417064B015C014AE00E940E02BA
:1005C0007C01E00EF11ECC23C1F1C501B4010E94F3
:1005D00046069B01AC01C301B2010E9433054B01E9
:1005E0005C016EE28FE391E00E946F01E80EF91E5C
:1005F000C15018F120E030E040E251E4C501B401FF
:100600000E94FD062B013C010E9417064B01B12CF4
:10061000A12C4AE0C501B4010E940E02E80EF91EA9
:10062000C501B4010E9446069B01AC01C301B201A1
:100630000E9433054B015C01DBCFC701CF911F91B5
:100640000F91FF90EF90DF90CF90BF90AF909F9071
:100650008F907F906F905F904F9008951F920F92B0
:100660000FB60F9211242F933F934F935F936F9385
:100670007F938F939F93AF93BF93EF93FF938FE3FA
:1006800091E00E944D01FF91EF91BF91AF919F9139
:100690008F917F916F915F914F913F912F910F902B
:1006A0000FBE0F901F9018951F920F920FB60F92CA
:1006B00011242F938F939F93EF93FF93E0914F011A
:1006C000F09150018081E0915501F091560182FD39
:1006D0001BC09081809158018F5F8F7320915901C9
:1006E000821741F0E0915801F0E0E15CFE4F958FF8
:1006F00080935801FF91EF919F918F912F910F90CF
:100700000FBE0F901F9018958081F4CF1F920F920B
:100710000FB60F9211242F933F938F939F93AF9314
:10072000BF9380912F0190913001A0913101B09140
:10073000320130912E0123E0230F2D3758F5019619
:10074000A11DB11D20932E0180932F0190933001A4
:10075000A0933101B0933201809133019091340123
:10076000A0913501B09136010196A11DB11D809374
:10077000330190933401A0933501B0933601BF91BA
:10078000AF919F918F913F912F910F900FBE0F903E
:100790001F90189526E8230F0296A11DB11DD2CFF8
:1007A000789484B5826084BD84B5816084BD85B54C
:1007B000826085BD85B5816085BD80916E00816058
:1007C00080936E00109281008091810082608093FE
:1007D0008100809181008160809381008091800000
:1007E0008160809380008091B10084608093B1002B
:1007F0008091B00081608093B00080917A00846025
:1008000080937A0080917A00826080937A00809150
:100810007A00816080937A0080917A00806880936A
:100820007A001092C100E0914F01F091500182E0F6
:100830008083E0914B01F0914C011082E0914D01D9
:10084000F0914E018FEC808310925701E09153019B
:10085000F091540186E08083E0915101F0915201C2
:10086000808180618083E0915101F091520180810B
:1008700088608083E0915101F0915201808180680D
:100880008083E0915101F091520180818F7D8083BE
:10089000EDE9F0E02491E9E8F0E08491882399F013
:1008A00090E0880F991FFC01E859FF4FA591B49182
:1008B000FC01EE58FF4F859194918FB7F894EC911D
:1008C000E22BEC938FBF10E4C0E0D0E010937C00EB
:1008D00080917A00806480937A0080917A0086FD0E
:1008E000FCCF8091780060917900762F682F072ED9
:1008F000000C880B990B0E94480620E030EC4FE773
:1009000054E40E94A50520E030E44CE955E40E943F
:10091000FD0660933B0170933C0180933D019093F1
:100920003E018EE191E00E94010260913B017091D5
:100930003C0180913D0190913E0142E00E945202B3
:100940008AE291E00E94010220E030E040E251E4BE
:1009500060913B0170913C0180913D0190913E017D
:100960000E94A50560933701709338018093390187
:1009700090933A0142E00E9452028AE291E00E9482
:10098000010220E030E048EC51E4609137017091C1
:1009900038018091390190913A010E94F8061816A9
:1009A0009CF581E00E9487000E94DC014B015C0104
:1009B00080EDC82E87E0D82EE12CF12C0E94DC01BE
:1009C000681979098A099B09683E73408105910578
:1009D000A8F321E0C21AD108E108F10888EE880ED8
:1009E00083E0981EA11CB11CC114D104E104F104E0
:1009F00029F7209709F46ACF0E943901882309F466
:100A000065CF0E94000062CF80E0CCCFEFE3F1E041
:100A10001382128288EE93E0A0E0B0E08483958395
:100A2000A683B78384E091E09183808385EC90E096
:100A30009587848784EC90E09787868780EC90E0A8
:100A4000918B808B81EC90E0938B828B82EC90E099
:100A5000958B848B86EC90E0978B868B118E128E13
:100A6000138E148E08955058BB27AA270E944B0559
:100A70000C94BE060E94B00638F00E94B70620F023
:100A800039F49F3F19F426F40C94AD060EF4E0956A
:100A9000E7FB0C94A706E92F0E94CF0658F3BA177C
:100AA000620773078407950720F079F4A6F50C9484
:100AB000F1060EF4E0950B2EBA2FA02D0B01B90113
:100AC00090010C01CA01A0011124FF27591B99F0C4
:100AD000593F50F4503E68F11A16F040A22F232FD0
:100AE000342F4427585FF3CF469537952795A79520
:100AF000F0405395C9F77EF41F16BA0B620B730BC7
:100B0000840BBAF09150A1F0FF0FBB1F661F771F37
:100B1000881FC2F70EC0BA0F621F731F841F48F4EC
:100B2000879577956795B795F7959E3F08F0B0CF75
:100B30009395880F08F09927EE0F9795879508955C
:100B40000E94830608F481E008950E94B9050C9480
:100B5000BE060E94B70658F00E94B00640F029F485
:100B60005F3F29F00C94A70651110C94F2060C94E7
:100B7000AD060E94CF0668F39923B1F3552391F394
:100B8000951B550BBB27AA2762177307840738F0FC
:100B90009F5F5F4F220F331F441FAA1FA9F335D059
:100BA0000E2E3AF0E0E832D091505040E695001C0D
:100BB000CAF72BD0FE2F29D0660F771F881FBB1FC7
:100BC000261737074807AB07B0E809F0BB0B802DA5
:100BD000BF01FF2793585F4F3AF09E3F510578F0D1
:100BE0000C94A7060C94F2065F3FE4F3983ED4F30E
:100BF000869577956795B795F7959F5FC9F7880FA5
:100C0000911D9695879597F90895E1E0660F771FF6
:100C1000881FBB1F621773078407BA0720F0621B87
:100C2000730B840BBA0BEE1F88F7E09508950E94B2
:100C3000D70688F09F5798F0B92F9927B751B0F091
:100C4000E1F0660F771F881F991F1AF0BA95C9F750
:100C500014C0B13091F00E94F106B1E008950C94F7
:100C6000F106672F782F8827B85F39F0B93FCCF3AA
:100C7000869577956795B395D9F73EF490958095CD
:100C8000709561957F4F8F4F9F4F0895E89409C0ED
:100C900097FB3EF490958095709561957F4F8F4FAF
:100CA0009F4F9923A9F0F92F96E9BB279395F695C5
:100CB000879577956795B795F111F8CFFAF4BB0F43
:100CC00011F460FF1BC06F5F7F4F8F4F9F4F16C0A7
:100CD000882311F096E911C0772321F09EE8872F31
:100CE000762F05C0662371F096E8862F70E060E0ED
:100CF0002AF09A95660F771F881FDAF7880F969566
:100D0000879597F90895990F0008550FAA0BE0E809
:100D1000FEEF16161706E807F907C0F012161306BD
:100D2000E407F50798F0621B730B840B950B39F4FD
:100D30000A2661F0232B242B252B21F408950A2663
:100D400009F4A140A6958FEF811D811D089597F9A3
:100D50009F6780E870E060E008959FEF80EC089561
:100D600000240A941616170618060906089500248A
:100D70000A9412161306140605060895092E039404
:100D8000000C11F4882352F0BB0F40F4BF2B11F478
:100D900060FF04C06F5F7F4F8F4F9F4F089557FDD7
:100DA0009058440F551F59F05F3F71F04795880FD9
:100DB00097FB991F61F09F3F79F087950895121670
:100DC00013061406551FF2CF4695F1DF08C016161C
:100DD00017061806991FF1CF8695710561050894CD
:100DE0000895E894BB2766277727CB0197F90895E4
:100DF0000E94830608F48FEF08950E9410070C9458
:100E0000BE060E94B00638F00E94B70620F0952377
:100E100011F00C94A7060C94AD0611240C94F20664
:100E20000E94CF0670F3959FC1F3950F50E0551FB8
:100E3000629FF001729FBB27F00DB11D639FAA272F
:100E4000F00DB11DAA1F649F6627B00DA11D661F7E
:100E5000829F2227B00DA11D621F739FB00DA11D9F
:100E6000621F839FA00D611D221F749F3327A00D59
:100E7000611D231F849F600D211D822F762F6A2FF5
:100E800011249F5750409AF0F1F088234AF0EE0F5A
:100E9000FF1FBB1F661F771F881F91505040A9F787
:100EA0009E3F510580F00C94A7060C94F2065F3F1C
:100EB000E4F3983ED4F3869577956795B795F795C3
:100EC000E7959F5FC1F7FE2B880F911D969587953B
:100ED00097F908950E948306880B990B0895A1E263
:100EE0001A2EAA1BBB1BFD010DC0AA1FBB1FEE1FA4
:100EF000FF1FA217B307E407F50720F0A21BB30BEF
:100F0000E40BF50B661F771F881F991F1A9469F76A
:100F100060957095809590959B01AC01BD01CF01C6
:100F20000895EE0FFF1F0590F491E02D0994F894B9
:020F3000FFCFF1
:100F3200000000006F01CF00FC00BC012D010B017D
:100F42001F016E616E00696E66006F7666004D6904
:0E0F52006C69766F6C74733A20000D0A000013
:00000001FF
