:100000000C945C000C9444010C941D010C94790038
:100010000C9479000C9479000C9479000C9479007C
:100020000C9479000C9479000C9479000C9479006C
:100030000C9479000C946B010C9479000C94790069
:100040000C94D3000C9479000C9479000C947900F2
:100050000C9479000C9479000C9479000C9479003C
:100060000C9479000C947900000000080002010053
:100070000003040700000000000000000000000072
:10008000250028002B0000000000240027002A0083
:10009000040404040404040402020202020203032E
:1000A0000303030301020408102040800102040836
:1000B000102001020408102011241FBECFEFD8E049
:1000C000DEBFCDBF11E0A0E0B1E0E8E4F4E002C0A3
:1000D00005900D92A430B107D9F721E0A4E0B1E07A
:1000E00001C01D92AF30B207E1F70E9490010C945D
:1000F00022020C9400000895209104013091050122
:1001000081E090E02115310511F090E080E09093BE
:10011000050180930401E5E7F0E09491E1EBF0E064
:100120008491EDE9F0E0E491EE23C9F0992339F0F0
:10013000933001F1A8F4913019F1923029F1F0E0F7
:10014000EE0FFF1FE458FF4FA591B4919FB7F894AD
:10015000EC91232B31F180958E238C939FBF0895D2
:100160009730A9F09830C9F0943049F79091800009
:100170009F7D03C0909180009F7790938000DFCF98
:1001800094B59F7794BDDBCF94B59F7DFBCF9091C5
:10019000B0009F779093B000D2CF9091B0009F7D38
:1001A000F9CF8E2BDACF1F920F920FB60F92112438
:1001B0002F933F938F939F93AF93BF9380910B01A6
:1001C00090910C01A0910D01B0910E0130910A01A6
:1001D00023E0230F2D3758F50196A11DB11D209363
:1001E0000A0180930B0190930C01A0930D01B09331
:1001F0000E018091060190910701A0910801B09134
:1002000009010196A11DB11D80930601909307017C
:10021000A0930801B0930901BF91AF919F918F9175
:100220003F912F910F900FBE0F901F90189526E8C9
:10023000230F0296A11DB11DD2CF1F920F920FB6B0
:100240000F9211242F933F934F935F936F937F935C
:100250008F939F93AF93BF93EF93FF93E09102012E
:10026000F09103010995FF91EF91BF91AF919F919B
:100270008F917F916F915F914F913F912F910F904F
:100280000FBE0F901F9018951F920F920FB60F92EE
:1002900011242F933F934F935F936F937F938F938B
:1002A0009F93AF93BF93EF93FF93E0910001F09181
:1002B00001010995FF91EF91BF91AF919F918F91AE
:1002C0007F916F915F914F913F912F910F900FBE52
:1002D0000F901F9018951F920F920FB60F92112436
:1002E0002F933F934F935F936F937F938F939F933E
:1002F000AF93BF93EF93FF93F0E0E0E00995FF9198
:10030000EF91BF91AF919F918F917F916F915F918D
:100310004F913F912F910F900FBE0F901F90189506
:10032000789484B5826084BD84B5816084BD85B5D0
:10033000826085BD85B5816085BD80916E008160DC
:1003400080936E0010928100809181008260809382
:100350008100809181008160809381008091800084
:100360008160809380008091B10084608093B100AF
:100370008091B00081608093B00080917A008460A9
:1003800080937A0080917A00826080937A008091D5
:100390007A00816080937A0080917A0080688093EF
:1003A0007A001092C100E1EBF0E02491EDE9F0E079
:1003B0008491882399F090E0880F991FFC01EA57F7
:1003C000FF4FA591B491FC01E458FF4F85919491A2
:1003D0008FB7F894EC91E22BEC938FBFE6EAF0E054
:1003E0002491E2E9F0E084918823C1F090E0880F45
:1003F000991FFC01EA57FF4FC591D491FC01E458C5
:10040000FF4FA591B4919FB7F8948881E22FE095B2
:100410008E2388838C91E823EC939FBF8CE790E038
:100420009093010180930001809169008C7F82602C
:1004300080936900E89AC0E0D0E02097F1F30E9431
:080440000000FBCFF894FFCF90
:040448007B007B00BA
:00000001FF
