:100000000C945E000C9486000C9486000C94860080
:100010000C9486000C9486000C9486000C94860048
:100020000C9486000C9486000C9486000C94860038
:100030000C9486000C9486000C9486000C94860028
:100040000C9488020C9486000C9456020C94300296
:100050000C9486000C9486000C9486000C94860008
:100060000C9486000C9486000000000024002700F9
:100070002A0000000000250028002B0004040404CE
:100080000404040402020202020203030303030342
:10009000010204081020408001020408102001021F
:1000A00004081020000000080002010000030407FB
:1000B0000000000000000000D202900411241FBEC6
:1000C000CFEFD8E0DEBFCDBF21E0A0E2B1E001C0BC
:1000D0001D92A03DB207E1F711E0A0E0B1E0ECEB2A
:1000E000FDE002C005900D92A032B107D9F710E0F3
:1000F000CDE5D0E004C02197FE010E94D004CC35AC
:10010000D107C9F70E9446030C94D1060C94000055
:10011000E1EBF0E02491EDE9F0E09491E9E8F0E022
:10012000E491EE23C9F0222339F0233001F1A8F441
:10013000213019F1223029F1F0E0EE0FFF1FEE58C7
:10014000FF4FA591B4912FB7F894EC91811126C07F
:1001500090959E239C932FBF08952730A9F02830B7
:10016000C9F0243049F7209180002F7D03C02091F1
:1001700080002F7720938000DFCF24B52F7724BD18
:10018000DBCF24B52F7DFBCF2091B0002F772093BC
:10019000B000D2CF2091B0002F7DF9CF9E2BDACFC7
:1001A000AF92BF92CF92DF92EF92FF920F931F9385
:1001B000CF93DF936C017B018B01040F151FEB01C3
:1001C0005E01AE18BF08C017D10759F06991D6017A
:1001D000ED91FC910190F081E02DC6010995892BEC
:1001E00079F7C501DF91CF911F910F91FF90EF90AB
:1001F000DF90CF90BF90AF900895FC01538D448D58
:10020000252F30E0842F90E0821B930B541710F0C1
:10021000CF96089501970895FC01918D828D9817CE
:1002200061F0A28DAE0FBF2FB11D5D968C91928DA6
:100230009F5F9F73928F90E008958FEF9FEF0895D7
:10024000FC01918D828D981731F0828DE80FF11DA0
:10025000858D90E008958FEF9FEF0895FC01918DBB
:10026000228D892F90E0805C9F4F821B91098F73B4
:100270009927089589E291E00E942E0121E0892BBF
:1002800009F420E0822F089580E090E0892B29F086
:100290000E943A0181110C9400000895FC01A48D84
:1002A000A80FB92FB11DA35ABF4F2C91848D90E098
:1002B00001968F739927848FA689B7892C93A0897B
:1002C000B1898C91837080648C93938D848D981305
:1002D00006C00288F389E02D80818F7D8083089598
:1002E000EF92FF920F931F93CF93DF93EC0181E086
:1002F000888F9B8D8C8D98131AC0E889F98980812D
:1003000085FF15C09FB7F894EE89FF896083E8895F
:10031000F98980818370806480839FBF81E090E051
:10032000DF91CF911F910F91FF90EF900895F62EDE
:100330000B8D10E00F5F1F4F0F731127E02E8C8D78
:100340008E110CC00FB607FCFACFE889F9898081BD
:1003500085FFF5CFCE010E944E01F1CFEB8DEC0F62
:10036000FD2FF11DE35AFF4FF0829FB7F8940B8FDA
:10037000EA89FB8980818062CFCFCF93DF93EC0144
:10038000888D8823B9F0AA89BB89E889F9898C917D
:1003900085FD03C0808186FD0DC00FB607FCF7CF39
:1003A0008C9185FFF2CF808185FFEDCFCE010E9439
:1003B0004E01E9CFDF91CF9108953FB7F894809136
:1003C000250190912601A0912701B091280126B521
:1003D000A89B05C02F3F19F00196A11DB11D3FBF7D
:1003E000BA2FA92F982F8827BC01CD01620F711D4C
:1003F000811D911D42E0660F771F881F991F4A9546
:10040000D1F70895CF93DF93EC018091C6019091CD
:10041000C701009759F02091C8013091C9012C17EC
:100420003D0720F081E0DF91CF910895BE016F5F1D
:100430007F4F0E94FB05009789F09093C70180933E
:10044000C601D093C901C093C8012091CA0130915F
:10045000CB01232B39F7FC011082E4CF80E0E3CFFE
:100460001F920F920FB60F9211242F933F934F9329
:100470005F936F937F938F939F93AF93BF93EF930C
:10048000FF9389E291E00E944E01FF91EF91BF91AD
:10049000AF919F918F917F916F915F914F913F911C
:1004A0002F910F900FBE0F901F9018951F920F92D3
:1004B0000FB60F9211242F938F939F93EF93FF9377
:1004C000E0913901F0913A018081E0913F01F09192
:1004D000400182FD1BC09081809142018F5F8F732C
:1004E00020914301821741F0E0914201F0E0E75D85
:1004F000FE4F958F80934201FF91EF919F918F91D5
:100500002F910F900FBE0F901F9018958081F4CF00
:100510001F920F920FB60F9211242F933F938F9338
:100520009F93AF93BF938091210190912201A0915D
:100530002301B09124013091200123E0230F2D37B6
:1005400058F50196A11DB11D209320018093210132
:1005500090932201A0932301B0932401809125015F
:1005600090912601A0912701B09128010196A11D2B
:10057000B11D8093250190932601A0932701B0938C
:100580002801BF91AF919F918F913F912F910F9033
:100590000FBE0F901F90189526E8230F0296A11DFD
:1005A000B11DD2CF10922C0110922B0188EE93E056
:1005B000A0E0B0E080932D0190932E01A0932F0135
:1005C000B09330018AE091E090932A018093290151
:1005D00085EC90E0909336018093350184EC90E0B7
:1005E000909338018093370180EC90E090933A012A
:1005F0008093390181EC90E090933C0180933B0122
:1006000082EC90E090933E0180933D0186EC90E077
:100610009093400180933F01109242011092430158
:1006200010924401109245011092C7011092C60128
:100630001092C9011092C8011092CB011092CA0108
:1006400090E080E00E9402022091C6013091C70133
:10065000811113C02115310519F0C9010E947205DD
:100660001092C7011092C6011092CB011092CA01DC
:100670001092C9011092C80108951092CB011092F6
:10068000CA016EE171E0C9010C94CA06CF93DF93F1
:1006900000D0CDB7DEB7789484B5826084BD84B5D0
:1006A000816084BD85B5826085BD85B5816085BD6D
:1006B00080916E00816080936E0010928100809125
:1006C00081008260809381008091810081608093AD
:1006D0008100809180008160809380008091B100D2
:1006E00084608093B1008091B00081608093B000FD
:1006F00080917A00846080937A0080917A00826091
:1007000080937A0080917A00816080937A00809152
:100710007A00806880937A001092C100E0913901DC
:10072000F0913A0182E08083E0913501F091360149
:100730001082E0913701F09138018FEC80831092A4
:100740004101E0913D01F0913E0186E08083E0911E
:100750003B01F0913C01808180618083E0913B010D
:10076000F0913C01808188608083E0913B01F091B1
:100770003C01808180688083E0913B01F0913C01E5
:1007800080818F7D8083EDE9F0E02491E9E8F0E05D
:100790008491882399F090E0880F991FFC01E85913
:1007A000FF4FA591B491FC01EE58FF4F85919491B4
:1007B0008FB7F894EC91E22BEC938FBF90E0E92E89
:1007C00090E0F92E89E291E00E942E01892B09F434
:1007D00049C00E94DD012B013C018AE0882E912C4A
:1007E000A12CB12C0E94DD016419750986099709B5
:1007F000683E734081059105A8F321E0821A9108B3
:10080000A108B10888EE480E83E0581E611C711CD7
:1008100081149104A104B10429F789E291E00E94B6
:100820000C0189831A820091CA011091CB010F5FDC
:100830001F4FC8010E940202882321F22091C601A5
:100840003091C7018091CA019091CB01BE016F5FC9
:100850007F4F820F931F0E94CA061093CB01009313
:10086000CA01B0CF4091CA015091CB014115510549
:10087000C1F16091C6017091C70189E291E00E94C7
:10088000D0008091CA019091CB01892B71F0009129
:10089000C6011091C70168E171E0C8010E94C1065C
:1008A000892B59F581E00E94880090E080E00E9449
:1008B00002022091C6013091C701811127C0211584
:1008C000310519F0C9010E9472051092C7011092FA
:1008D000C6011092CB011092CA011092C901109268
:1008E000C801E114F10409F46DCF0E943A01882394
:1008F00009F468CF0E94000065CF6BE171E0C80188
:100900000E94C106892B89F680E0CDCF1092CB01E1
:100910001092CA016EE171E0C9010E94CA06E1CFDE
:100920008091C6019091C701009711F00C94720557
:1009300008952F923F924F925F926F927F928F9283
:100940009F92AF92BF92CF92DF92EF92FF920F935E
:100950001F93CF93DF93CDB7DEB7CA1BDB0B0FB668
:10096000F894DEBF0FBECDBF09942A883988488825
:100970005F846E847D848C849B84AA84B984C884BB
:10098000DF80EE80FD800C811B81AA81B981CE0FB2
:10099000D11D0FB6F894DEBF0FBECDBFED01089597
:1009A000EE0FFF1F0590F491E02D09940F931F9314
:1009B000CF93DF938230910510F482E090E0E091D4
:1009C000CE01F091CF0130E020E0B0E0A0E0309720
:1009D00099F42115310509F44AC0281B390B24303C
:1009E0003105D8F58A819B816115710589F1FB017B
:1009F00093838283FE0111C0408151810281138162
:100A000048175907E0F04817590799F4109761F013
:100A100012960C93129713961C933296CF01DF9186
:100A2000CF911F910F9108950093CE011093CF01A4
:100A3000F4CF2115310551F04217530738F0A901C1
:100A4000DB019A01BD01DF01F801C1CFEF01F9CF50
:100A50009093CF018093CE01CDCFFE01E20FF31F23
:100A6000819391932250310939832883D7CF2091E4
:100A7000CC013091CD01232B41F420910201309122
:100A800003013093CD012093CC01209100013091DE
:100A900001012115310541F42DB73EB74091040104
:100AA00050910501241B350BE091CC01F091CD0153
:100AB000E217F307A0F42E1B3F0B2817390778F035
:100AC000AC014E5F5F4F2417350748F04E0F5F1F94
:100AD0005093CD014093CC01819391939FCFF0E04F
:100AE000E0E09CCFCF93DF930097E9F0FC013297D1
:100AF00013821282A091CE01B091CF01ED0130E0BE
:100B000020E01097A1F420813181820F931F209162
:100B1000CC013091CD012817390709F061C0F0935D
:100B2000CD01E093CC01DF91CF910895EA01CE177A
:100B3000DF07E8F54A815B819E0141155105B1F758
:100B4000E901FB83EA8349915991C40FD51FEC1742
:100B5000FD0761F4808191810296840F951FE90160
:100B600099838883828193819B838A83F0E0E0E08C
:100B700012968D919C9113970097B9F52D913C9108
:100B80001197CD010296820F931F2091CC013091D5
:100B9000CD012817390739F6309751F51092CF015A
:100BA0001092CE01B093CD01A093CC01BCCFD383E2
:100BB000C28340815181840F951FC817D90761F402
:100BC0004E5F5F4F88819981480F591F5183408341
:100BD0008A819B81938382832115310509F0B0CFEF
:100BE000F093CF01E093CE019ECFFD01DC01C0CF99
:100BF00013821282D7CFB0E0A0E0E1E0F6E00C94DF
:100C00009B048C01009751F4CB010E94D6048C0107
:100C1000C801CDB7DEB7E0E10C94B704FC01E60FE4
:100C2000F71F9C0122503109E217F30708F49DC019
:100C3000D901CD91DC911197C617D70798F0C5302F
:100C4000D10530F3CE0104978617970708F3C61B2A
:100C5000D70B2297C193D1936D937C93CF010E94C0
:100C60007205D6CF5B01AC1ABD0A4C018C0E9D1EDD
:100C7000A091CE01B091CF01512C412CF12CE12C4F
:100C8000109731F58091CC019091CD01881599058F
:100C900009F05CC04616570608F058C08091000164
:100CA00090910101009741F48DB79EB740910401E6
:100CB00050910501841B950BE817F90708F055C002
:100CC000F093CD01E093CC01F90171836083A0CF53
:100CD0008D919C91119712966C90129713967C901F
:100CE0001397A815B90559F56C0142E0C40ED11C43
:100CF000CA14DB0420F1AC014A195B09DA0112962F
:100D0000159780F06282738251834083D9016D937D
:100D10007C93E114F10471F0D7011396FC93EE93E8
:100D2000129776CF22968C0F9D1FF90191838083B5
:100D3000F301EFCFF093CF01E093CE0169CF4816D6
:100D4000590608F42C017D01D3019ACFCB010E94F2
:100D5000D6047C01009749F0AE01B8010E94B806A4
:100D6000C8010E947205870153CF10E000E050CF08
:100D7000FB01DC0102C001900D9241505040D8F7B8
:100D80000895FB01DC018D91019080190110D9F3C8
:100D9000990B0895FB01DC0101900D920020E1F711
:100DA000089510E0CDE5D0E004C0FE010E94D0041B
:0C0DB0002196CE35D107C9F7F894FFCF8B
:100DBC000000D0018000000000007001D000FD0098
:100DCC00BD012E010C0120016F6E006F66660000E4
:00000001FF
