:100000000C945D000C9485000C9485000C94850084
:100010000C9485000C9485000C9485000C9485004C
:100020000C9485000C9485000C9485000C9485003C
:100030000C9485000C9485000C9485000C9485002C
:100040000C947C020C9485000C944A020C942402BB
:100050000C9485000C9485000C9485000C9485000C
:100060000C9485000C94850000000008000201003B
:100070000003040700000000000000000000000072
:10008000250028002B0000000000240027002A0083
:10009000040404040404040402020202020203032E
:1000A0000303030301020408102040800102040836
:1000B0001020010204081020200411241FBECFEFDD
:1000C000D8E0DEBFCDBF11E0A0E0B1E0E4E8FBE0A6
:1000D00002C005900D92A631B107D9F721E0A6E143
:1000E000B1E001C01D92A73CB207E1F710E0CDE5F9
:1000F000D0E004C02197FE010E94BA05CC35D1079B
:10010000C9F70E94C6020C94C0050C94000090E050
:10011000FC01EC55FF4F249180579F4FFC018491C7
:10012000882399F090E0880F991FFC01EA57FF4F50
:10013000A591B491FC01E458FF4F859194918FB73C
:10014000F894EC91E22BEC938FBF0895AF92BF929D
:10015000CF92DF92EF92FF920F931F93CF93DF9393
:100160006C017B018B01040F151FEB015E01AE18C2
:10017000BF08C017D10759F06991D601ED91FC91E4
:100180000190F081E02DC6010995892B79F7C50111
:10019000DF91CF911F910F91FF90EF90DF90CF9063
:1001A000BF90AF900895FC01538D448D252F30E012
:1001B000842F90E0821B930B541710F0CF96089574
:1001C00001970895FC01918D828D981761F0A28DA1
:1001D000AE0FBF2FB11D5D968C91928D9F5F9F7367
:1001E000928F90E008958FEF9FEF0895FC01918D1D
:1001F000828D981731F0828DE80FF11D858D90E08A
:1002000008958FEF9FEF0895FC01918D228D892F26
:1002100090E0805C9F4F821B91098F73992708950E
:100220008AE291E00E94040121E0892B09F420E098
:10023000822F089580E090E0892B29F00E94100120
:1002400081110C9400000895FC01A48DA80FB92F12
:10025000B11DA35ABF4F2C91848D90E001968F73EE
:100260009927848FA689B7892C93A089B1898C910D
:10027000837080648C93938D848D981306C002885C
:10028000F389E02D80818F7D80830895EF92FF9226
:100290000F931F93CF93DF93EC0181E0888F9B8DA9
:1002A0008C8D98131AC0E889F989808185FF15C063
:1002B0009FB7F894EE89FF896083E889F989808186
:1002C0008370806480839FBF81E090E0DF91CF9155
:1002D0001F910F91FF90EF900895F62E0B8D10E077
:1002E0000F5F1F4F0F731127E02E8C8D8E110CC0E6
:1002F0000FB607FCFACFE889F989808185FFF5CF31
:10030000CE010E942401F1CFEB8DEC0FFD2FF11DEA
:10031000E35AFF4FF0829FB7F8940B8FEA89FB896D
:1003200080818062CFCFCF93DF93EC01888D8823CB
:10033000B9F0AA89BB89E889F9898C9185FD03C048
:10034000808186FD0DC00FB607FCF7CF8C9185FF2D
:10035000F2CF808185FFEDCFCE010E942401E9CF4D
:10036000DF91CF91089590E0FC01E859FF4F24916F
:10037000FC01EC55FF4F3491FC01E057FF4FE49135
:10038000EE23C9F0222339F0233001F1A8F4213003
:1003900019F1223029F1F0E0EE0FFF1FE458FF4F72
:1003A000A591B4918FB7F894EC91611126C0309566
:1003B0003E233C938FBF08952730A9F02830C9F021
:1003C000243049F7809180008F7D03C080918000A8
:1003D0008F7780938000DFCF84B58F7784BDDBCFAC
:1003E00084B58F7DFBCF8091B0008F778093B00074
:1003F000D2CF8091B0008F7DF9CF3E2BDACF3FB7BF
:10040000F89480911B0190911C01A0911D01B09165
:100410001E0126B5A89B05C02F3F19F00196A11D0E
:10042000B11D3FBFBA2FA92F982F8827BC01CD013E
:10043000620F711D811D911D42E0660F771F881F9D
:10044000991F4A95D1F708951F920F920FB60F92F8
:1004500011242F933F934F935F936F937F938F93C9
:100460009F93AF93BF93EF93FF938AE291E00E9433
:100470002401FF91EF91BF91AF919F918F917F9157
:100480006F915F914F913F912F910F900FBE0F9001
:100490001F9018951F920F920FB60F9211242F9351
:1004A0008F939F93EF93FF93E0913A01F0913B017B
:1004B0008081E0914001F091410182FD1BC090815B
:1004C000809143018F5F8F7320914401821741F027
:1004D000E0914301F0E0E65DFE4F958F809343018C
:1004E000FF91EF919F918F912F910F900FBE0F90E1
:1004F0001F9018958081F4CF1F920F920FB60F9224
:1005000011242F933F938F939F93AF93BF93809129
:10051000170190911801A0911901B0911A01309121
:10052000160123E0230F2D3758F50196A11DB11DAB
:10053000209316018093170190931801A09319013D
:10054000B0931A0180911B0190911C01A0911D0193
:10055000B0911E010196A11DB11D80931B019093C6
:100560001C01A0931D01B0931E01BF91AF919F91FB
:100570008F913F912F910F900FBE0F901F90189564
:1005800026E8230F0296A11DB11DD2CF789484B521
:10059000826084BD84B5816084BD85B5826085BD7F
:1005A00085B5816085BD80916E00816080936E000D
:1005B00010928100809181008260809381008091FF
:1005C00081008160809381008091800081608093B0
:1005D00080008091B10084608093B1008091B00070
:1005E00081608093B00080917A00846080937A006B
:1005F00080917A00826080937A0080917A00816095
:1006000080937A0080917A00806880937A001092BB
:10061000C100E0913A01F0913B0182E08083E091DA
:100620003601F09137011082E0913801F0913901E3
:100630008FEC808310924201E0913E01F0913F01E6
:1006400086E08083E0913C01F0913D0180818061F2
:100650008083E0913C01F0913D018081886080833E
:10066000E0913C01F0913D01808180688083E091C0
:100670003C01F0913D0180818F7D80838DE00E945F
:1006800087008CE00E9487008BE00E948700C09169
:1006900027016C2F8DE00E94B3016C2F8CE00E942B
:1006A000B3016C2F8BE00E94B30110E402E0BB2485
:1006B000B394C0E0D0E09DE0A92E10937C0080911F
:1006C0007A00806480937A0080917A0086FDFCCF66
:1006D0008091780060917900762F682F072E000CAA
:1006E000880B990B0E94C10420E030EC4FE754E4E2
:1006F0000E944D0420E030E44CE955E40E944D0591
:1007000020E030E040E251E40E944D04562E672E76
:10071000782EC92E8AE291E00E940401892BF1F122
:100720008AE291E00E94E200D82E809329018AE2B9
:1007300091E00E94E2008AE291E00E94E2008AE2F7
:1007400091E00E94E2007C01809303018AE291E043
:100750000E94E2008AE291E00E94E2008AE291E0D7
:100760000E94E2008AE291E00E94E2009C013327AD
:1007700030932801209327019701332730930201FA
:100780002093010121E0D21204C0682F8E2D0E9417
:10079000B30180910001815080930001809100019C
:1007A0008B3010F4A092000100931F01B092200141
:1007B0009091010180910201909321018093220187
:1007C000509223016092240170922501C09226016B
:1007D00048E050E06FE171E08AE291E00E94A600FB
:1007E0000E94FF012B013C0188EEC82E83E0D82E29
:1007F000E12CF12C0E94FF01641975098609970903
:10080000683E734081059105A8F381E0C81AD108BC
:10081000E108F10828EE420E23E0521E611C711C13
:10082000C114D104E104F10429F7209709F445CF5C
:100830000E941001882309F440CF0E9400003DCFA0
:10084000EAE2F1E01382128288EE93E0A0E0B0E0E9
:1008500084839583A683B78388E091E09183808326
:1008600085EC90E09587848784EC90E09787868775
:1008700080EC90E0918B808B81EC90E0938B828B6D
:1008800082EC90E0958B848B86EC90E0978B868B46
:10089000118E128E138E148E08950E9461040C9492
:1008A00013050E940C0558F00E94050540F029F43C
:1008B0005F3F29F00C94FC0451110C9447050C94F3
:1008C00002050E94240568F39923B1F3552391F39F
:1008D000951B550BBB27AA2762177307840738F0AF
:1008E0009F5F5F4F220F331F441FAA1FA9F335D00C
:1008F0000E2E3AF0E0E832D091505040E695001CC0
:10090000CAF72BD0FE2F29D0660F771F881FBB1F79
:10091000261737074807AB07B0E809F0BB0B802D57
:10092000BF01FF2793585F4F3AF09E3F510578F083
:100930000C94FC040C9447055F3FE4F3983ED4F319
:10094000869577956795B795F7959F5FC9F7880F57
:10095000911D9695879597F90895E1E0660F771FA9
:10096000881FBB1F621773078407BA0720F0621B3A
:10097000730B840BBA0BEE1F88F7E0950895E8948B
:1009800009C097FB3EF490958095709561957F4FD7
:100990008F4F9F4F9923A9F0F92F96E9BB27939585
:1009A000F695879577956795B795F111F8CFFAF495
:1009B000BB0F11F460FF1BC06F5F7F4F8F4F9F4FC6
:1009C00016C0882311F096E911C0772321F09EE824
:1009D000872F762F05C0662371F096E8862F70E08A
:1009E00060E02AF09A95660F771F881FDAF7880F64
:1009F0009695879597F9089597F99F6780E870E035
:100A000060E008959FEF80EC089500240A94161684
:100A1000170618060906089500240A9412161306EC
:100A2000140605060895092E0394000C11F488237A
:100A300052F0BB0F40F4BF2B11F460FF04C06F5F96
:100A40007F4F8F4F9F4F089557FD9058440F551F6C
:100A500059F05F3F71F04795880F97FB991F61F040
:100A60009F3F79F087950895121613061406551FB7
:100A7000F2CF4695F1DF08C0161617061806991F23
:100A8000F1CF86957105610508940895E894BB2718
:100A900066277727CB0197F908950E9460050C948B
:100AA00013050E94050538F00E940C0520F09523DF
:100AB00011F00C94FC040C94020511240C944705CD
:100AC0000E94240570F3959FC1F3950F50E0551FC8
:100AD000629FF001729FBB27F00DB11D639FAA2793
:100AE000F00DB11DAA1F649F6627B00DA11D661FE2
:100AF000829F2227B00DA11D621F739FB00DA11D03
:100B0000621F839FA00D611D221F749F3327A00DBC
:100B1000611D231F849F600D211D822F762F6A2F58
:100B200011249F5750409AF0F1F088234AF0EE0FBD
:100B3000FF1FBB1F661F771F881F91505040A9F7EA
:100B40009E3F510580F00C94FC040C9447055F3FD8
:100B5000E4F3983ED4F3869577956795B795F79526
:100B6000E7959F5FC1F7FE2B880F911D969587959E
:100B700097F90895EE0FFF1F0590F491E02D099469
:040B8000F894FFCF17
:100B84000D0D000D000000004601A600D3009301E6
:060B94000401E200F6007E
:00000001FF
