:100000000C9462000C946D020C9446020C948A00CD
:100010000C948A000C948A000C948A000C948A0038
:100020000C948A000C948A000C948A000C9494021C
:100030000C948A000C948A000C948A000C948A0018
:100040000C94FC010C948A000C948A000C948A0095
:100050000C948A000C948A000C948A000C948A00F8
:100060000C948A000C948A000000000024002700F1
:100070002A0000000000250028002B0000000000DE
:1000800023002600290004040404040404040202DA
:100090000202020203030303030301020408102007
:1000A0004080010204081020010204081020000012
:1000B0000008000201000003040700000000000027
:1000C00000006D0411241FBECFEFD8E0DEBFCDBF0E
:1000D00011E0A0E0B1E0EEEFF9E002C005900D9272
:1000E000A830B107D9F721E0A8E0B1E001C01D9226
:1000F000AA33B207E1F710E0C2E6D0E004C02197CE
:10010000FE010E94F704C136D107C9F70E945003CF
:100110000C94FD040C940000CF92DF92EF92FF92BA
:10012000DC01A03282E0B807D4F5A53BB10514F09C
:10013000A4EBB0E04091380128E830E0241B3109FD
:1001400047FD3395220F331F220F331F6901330FF1
:10015000EE08FF084091390128E532E0241B3109FF
:1001600047FD3395220F331F220F331F032E000C40
:10017000440B550B2C193D094E095F09B7FF02C00E
:10018000B0E0A0E00E94B20424EB30E040E050E098
:100190000E948804C20ED31EE41EF51ED601E09113
:1001A0003701EC3080F52091380188E890E0821B1F
:1001B000910927FD9395880F991F880F991FA817FC
:1001C000B90784F02091390188E592E0821B9109FA
:1001D00027FD9395880F991F880F991FA817B907B6
:1001E0000CF4CD010297880F991F4FB7F8942E2F6A
:1001F00030E0F901EE0FFF1FE20FF31FED5EFE4F3F
:10020000928381834FBFFF90EF90DF90CF9008954E
:10021000833081F028F4813099F08230A9F008957C
:100220008730A9F08830C9F08430B1F48091800023
:100230008F7D03C0809180008F7780938000089528
:1002400084B58F7784BD089584B58F7DFBCF809171
:10025000B0008F778093B00008958091B0008F7DBB
:10026000F9CF1F93CF93DF93282F30E0F901E255A8
:10027000FF4F8491F901E656FF4FD491F901EA57F7
:10028000FF4FC491CC23A9F0162F81110E940801C1
:10029000EC2FF0E0EE0FFF1FEE58FF4FA591B49149
:1002A0008FB7F894EC91111108C0D095DE23DC9340
:1002B0008FBFDF91CF911F910895DE2BF8CFCF93A1
:1002C000DF9390E0FC01E656FF4F24918A579F4F41
:1002D000FC0184918823D1F090E0880F991FFC01E4
:1002E000E859FF4FA591B491FC01EE58FF4FC5911D
:1002F000D491623071F49FB7F8943C91822F80952D
:1003000083238C93E8812E2B28839FBFDF91CF918D
:1003100008958FB7F894EC912E2B2C938FBFF6CFC6
:100320003FB7F89480910F0190911001A0911101B5
:10033000B091120126B5A89B05C02F3F19F0019678
:10034000A11DB11D3FBFBA2FA92F982F8827BC012F
:10035000CD01620F711D811D911D42E0660F771F57
:10036000881F991F4A95D1F708958F929F92AF9257
:10037000BF92CF92DF92EF92FF924B015C010E94FD
:1003800090016B017C010E9490016C197D098E091E
:100390009F09683E734081059105A8F321E0821A08
:1003A0009108A108B10888EEC80E83E0D81EE11CB0
:1003B000F11C81149104A104B10429F7FF90EF907E
:1003C000DF90CF90BF90AF909F908F90089590E076
:1003D00080E00E948C006FE070E080E090E00C9480
:1003E000B5018AE590E00E948C006FE070E080E04B
:1003F00090E00C94B50108951F920F920FB60F92E2
:1004000011242F933F938F939F93AF93BF9380912A
:100410000B0190910C01A0910D01B0910E01309152
:100420000A0123E0230F2D3758F50196A11DB11DB8
:1004300020930A0180930B0190930C01A0930D016E
:10044000B0930E0180910F0190911001A0911101C4
:10045000B09112010196A11DB11D80930F019093DF
:100460001001A0931101B0931201BF91AF919F9120
:100470008F913F912F910F900FBE0F901F90189565
:1004800026E8230F0296A11DB11DD2CF1F920F9215
:100490000FB60F9211242F933F934F935F936F9357
:1004A0007F938F939F93AF93BF93EF93FF93E091CD
:1004B0000201F09103010995FF91EF91BF91AF9176
:1004C0009F918F917F916F915F914F913F912F916C
:1004D0000F900FBE0F901F9018951F920F920FB69E
:1004E0000F9211242F933F934F935F936F937F93BA
:1004F0008F939F93AF93BF93EF93FF93E09100018E
:10050000F09101010995FF91EF91BF91AF919F91FA
:100510008F917F916F915F914F913F912F910F90AC
:100520000FBE0F901F9018951F920F920FB60F924B
:1005300011242F933F934F935F936F937F938F93E8
:100540009F93AF93BF93CF93DF93EF93FF938091EC
:100550000901C0910801D0E087FF24C010928500F6
:1005600010928400809109018F5F8093090180912E
:100570000901082E000C990B8C179D0724F480911B
:1005800009018C30C4F1809184009091850004961B
:1005900080349C4908F47AC0809184009091850051
:1005A000049676C080910901082E000C990B8C17D7
:1005B0009D07C4F6E09109018E2FEE0F990BFC0107
:1005C000EE0FFF1FE80FF91FED5EFE4F808186FFE3
:1005D000C9CFE09109018E2FEE0F990BFC01EE0FB0
:1005E000FF1FE80FF91FED5EFE4F808160E08F7303
:1005F0000E943101B7CF2091840030918500E091B5
:1006000009018E2FEE0F990BFC01EE0FFF1FE80F73
:10061000F91FED5EFE4F81819281820F931F9093AF
:10062000890080938800E09109018E2FEE0F990BCD
:10063000FC01EE0FFF1FE80FF91FED5EFE4F8081FA
:1006400086FF11C0E09109018E2FEE0F990BFC017E
:10065000EE0FFF1FE80FF91FED5EFE4F808161E096
:100660008F730E943101FF91EF91DF91CF91BF9184
:10067000AF919F918F917F916F915F914F913F913A
:100680002F910F900FBE0F901F90189580E49CE95A
:1006900090938900809388008FEF80930901E3CFC6
:1006A000789484B5826084BD84B5816084BD85B54D
:1006B000826085BD85B5816085BD80916E00816059
:1006C00080936E00109281008091810082608093FF
:1006D0008100809181008160809381008091800001
:1006E0008160809380008091B10084608093B1002C
:1006F0008091B00081608093B00080917A00846026
:1007000080937A0080917A00826080937A00809151
:100710007A00816080937A0080917A00806880936B
:100720007A001092C100809137018C3008F051C0DE
:1007300061E089E00E945F0180913701282F30E05D
:10074000F901EE0FFF1FE20FF31FED5EFE4F9081E8
:10075000907C9960908310923801109239012CE0BE
:10076000622F0E94EB04829FB001112430E020E050
:10077000AB01420F531FFA01EE0FFF1FE40FF51FED
:10078000ED5EFE4F908196FD16C02F5F3F4F2C30DF
:10079000310571F781110FC01092800082E08093C3
:1007A00081001092850010928400B19A80916F00B0
:1007B000826080936F00E09137018E2F90E0FC0102
:1007C000EE0FFF1FE80FF91FED5EFE4F8081806482
:1007D000808362E082E00E945F0187EE91E0909367
:1007E000010180930001809169008C7F8260809379
:1007F0006900E89A62E083E00E945F0181EF91E086
:10080000909303018093020180916900837F886047
:1008100080936900E99A62E084E00E945F0190E0C1
:1008200080E00E948C006FE070E080E090E00E9429
:10083000B501C2EBD0E00EE910E09AE8E92E90E0B5
:10084000F92E20E0C22E20E0D22EAA24A394B12CAF
:10085000FE018491F8019490F701849081100DC0FD
:1008600010920701109206018091040190910501F8
:10087000019741F190E080E014C081110E940801CD
:10088000E82DF0E0EE0FFF1FE458FF4FA591B49163
:100890008C91982229F3B0920701A092060181E081
:1008A00090E090930501809304016AE070E080E09D
:1008B00090E00E94B501C114D10409F4C9CF0E948F
:1008C0000000C6CF84EB90E00E948C006FE070E0E7
:1008D00080E090E00E94B501CDCF809108018C307E
:1008E00098F491E0980F909308018093370190E07D
:1008F000FC01EE0FFF1FE80FF91FED5EFE4F88EBC6
:100900009BE09283818308958FEF80933701089550
:10091000052E97FB1EF400940E949F0457FD07D0FC
:100920000E94BA0407FC03D04EF40C949F04509527
:100930004095309521953F4F4F4F5F4F08959095CB
:100940008095709561957F4F8F4F9F4F08950E94BE
:10095000DC04A59F900DB49F900DA49F800D911D68
:1009600011240895B7FF0C94A7040E94A704821BCA
:10097000930B0895A1E21A2EAA1BBB1BFD010DC00B
:10098000AA1FBB1FEE1FFF1FA217B307E407F5073F
:1009900020F0A21BB30BE40BF50B661F771F881F1B
:1009A000991F1A9469F760957095809590959B01B1
:1009B000AC01BD01CF010895A29FB001B39FC0015A
:1009C000A39F700D811D1124911DB29F700D811D7B
:1009D0001124911D0895991B79E004C0991F961761
:1009E00008F0961B881F7A95C9F780950895EE0F39
:0E09F000FF1F0590F491E02D0994F894FFCFBD
:0809FE00FB01FB0101000100F7
:00000001FF
